{
  "_format": "hh-sol-artifact-1",
  "contractName": "FileTimestamp",
  "sourceName": "contracts/FileTimestamp.sol",
  "abi": [
    {
      "inputs": [],
      "stateMutability": "nonpayable",
      "type": "constructor"
    },
    {
      "inputs": [
        {
          "internalType": "uint256",
          "name": "hash",
          "type": "uint256"
        }
      ],
      "name": "getTimestamp",
      "outputs": [
        {
          "internalType": "uint256",
          "name": "",
          "type": "uint256"
        }
      ],
      "stateMutability": "view",
      "type": "function"
    },
    {
      "inputs": [
        {
          "internalType": "uint256",
          "name": "",
          "type": "uint256"
        }
      ],
      "name": "hashToTimestamp",
      "outputs": [
        {
          "internalType": "uint256",
          "name": "",
          "type": "uint256"
        }
      ],
      "stateMutability": "view",
      "type": "function"
    },
    {
      "inputs": [
        {
          "internalType": "uint256",
          "name": "hash",
          "type": "uint256"
        },
        {
          "internalType": "uint256",
          "name": "timestamp",
          "type": "uint256"
        }
      ],
      "name": "setTimestamp",
      "outputs": [],
      "stateMutability": "nonpayable",
      "type": "function"
    }
  ],
  "bytecode": "0x608060405234801561001057600080fd5b506100556040518060400160405280601581526020017f4465706c6f79696e6720612020636f6e7472616374000000000000000000000081525061005a60201b60201c565b61023b565b6100f68160405160240161006e91906101ea565b6040516020818303038152906040527f41304fac000000000000000000000000000000000000000000000000000000007bffffffffffffffffffffffffffffffffffffffffffffffffffffffff19166020820180517bffffffffffffffffffffffffffffffffffffffffffffffffffffffff83818316178352505050506100f960201b60201c565b50565b61011a8161011561011d60201b6101ba1761013e60201b60201c565b60201c565b50565b60006a636f6e736f6c652e6c6f679050600080835160208501845afa505050565b61015060201b6101db17819050919050565b61015861020c565b565b600081519050919050565b600082825260208201905092915050565b60005b83811015610194578082015181840152602081019050610179565b60008484015250505050565b6000601f19601f8301169050919050565b60006101bc8261015a565b6101c68185610165565b93506101d6818560208601610176565b6101df816101a0565b840191505092915050565b6000602082019050818103600083015261020481846101b1565b905092915050565b7f4e487b7100000000000000000000000000000000000000000000000000000000600052605160045260246000fd5b6104058061024a6000396000f3fe608060405234801561001057600080fd5b50600436106100415760003560e01c8063808d713b14610046578063b633620c14610076578063d160c7a9146100a6575b600080fd5b610060600480360381019061005b9190610220565b6100c2565b60405161006d919061025c565b60405180910390f35b610090600480360381019061008b9190610220565b6100da565b60405161009d919061025c565b60405180910390f35b6100c060048036038101906100bb9190610277565b61014a565b005b60006020528060005260406000206000915090505481565b6000806000808481526020019081526020016000205403610130576040517f08c379a000000000000000000000000000000000000000000000000000000000815260040161012790610314565b60405180910390fd5b600080838152602001908152602001600020549050919050565b6000806000848152602001908152602001600020541461019f576040517f08c379a000000000000000000000000000000000000000000000000000000000815260040161019690610380565b60405180910390fd5b80600080848152602001908152602001600020819055505050565b60006a636f6e736f6c652e6c6f679050600080835160208501845afa505050565b6101e36103a0565b565b600080fd5b6000819050919050565b6101fd816101ea565b811461020857600080fd5b50565b60008135905061021a816101f4565b92915050565b600060208284031215610236576102356101e5565b5b60006102448482850161020b565b91505092915050565b610256816101ea565b82525050565b6000602082019050610271600083018461024d565b92915050565b6000806040838503121561028e5761028d6101e5565b5b600061029c8582860161020b565b92505060206102ad8582860161020b565b9150509250929050565b600082825260208201905092915050565b7f54696d657374616d70206e6f7420736574000000000000000000000000000000600082015250565b60006102fe6011836102b7565b9150610309826102c8565b602082019050919050565b6000602082019050818103600083015261032d816102f1565b9050919050565b7f54696d657374616d7020616c7265616479207365740000000000000000000000600082015250565b600061036a6015836102b7565b915061037582610334565b602082019050919050565b600060208201905081810360008301526103998161035d565b9050919050565b7f4e487b7100000000000000000000000000000000000000000000000000000000600052605160045260246000fdfea2646970667358221220755cc26731fe151d08c96baedca6fc0750b3011ec0266e5d6d5eb878c52954f264736f6c634300081c0033",
  "linkReferences": {},
  "deployedLinkReferences": {}
}